00COTAHIST.2019BOVESPA 20191230
012019120202AALR3       010ALLIAR      ON      NM   R$  000000000187100000000018720000000001839000000000185300000000018570000000001853000000000185700963000000000000168600000000000312531600000000000000009999123100000010000000000000BRAALRACNOR6101
012019120202AAPL34      010APPLE       DRN          R$  000000001120100000000112800000000011085000000001124100000000110850000000011085000000001200000015000000000000013500000000000151755000000000000000009999123100000010000000000000BRAAPLBDR004131
012019120202ABCB4       010ABC BRASIL  PN      N2   R$  000000000184600000000018540000000001836000000000184500000000018420000000001842000000000184502970000000000000489400000000000903263300000000000000009999123100000010000000000000BRABCBACNPR4132
012019120202ABEV3       010AMBEV S/A   ON           R$  000000000180500000000018160000000001789000000000179900000000017970000000001796000000000179827689000000000010259800000000018457493900000000000000009999123100000010000000000000BRABEVACNOR1121
012019120202ABTT34      010ABBOTT      DRN          R$  000000000896000000000089600000000008896000000000895500000000088960000000000000000000000000000002000000000000004300000000000038508800000000000000009999123100000010000000000000BRABTTBDR007132
012019120202ADBE34      010ADOBE INC   DRN          R$  000000002565800000000256580000000025658000000002565800000000256580000000000000000000000000000001000000000000000300000000000007697400000000000000009999123100000010000000000000BRADBEBDR003100
012019120202ADHM3       010ADVANCED-DH ON           R$  000000000015400000000001580000000000150000000000015100000000001500000000000148000000000015000042000000000000024400000000000003687200000000000000009999123100000010000000000000BRADHMACNOR9101
012019120202AFLT3       010AFLUENTE T  ON           R$  000000000132000000000013780000000001300000000000131500000000013270000000001327000000000132800019000000000000004500000000000005920300000000000000009999123100000010000000000000BRAFLTACNOR1113
012019120202AGRO3       010BRASILAGRO  ON      NM   R$  000000000168200000000017030000000001650000000000167900000000017020000000001696000000000170200599000000000000183700000000000308442800000000000000009999123100000010000000000000BRAGROACNOR7109
012019120202AHEB3       010SPTURIS     ON           R$  000000000300000000000030000000000003000000000000300000000000030000000000002100000000000300000001000000000000000100000000000000300000000000000000009999123100000010000000000000BRAHEBACNOR0105
012019120202ALPA3       010ALPARGATAS  ON      N1   R$  000000000284500000000028450000000002635000000000269100000000026710000000002671000000000269900028000000000000003300000000000008883400000000000000009999123100000010000000000000BRALPAACNOR0228
012019120202ALPA4       010ALPARGATAS  PN      N1   R$  000000000322000000000032200000000003116000000000313400000000031160000000003116000000000311906234000000000001227700000000003848111200000000000000009999123100000010000000000000BRALPAACNPR7228
012019120202ALSO3       010ALIANSCSONAEON      NM   R$  000000000444000000000044500000000004361000000000441600000000044450000000004426000000000444703272000000000000661500000000002921377800000000000000009999123100000010000000000000BRALSOACNOR5100
012019120202ALUP3       010ALUPAR      ON      N2   R$  000000000101400000000010190000000000999000000000100500000000010050000000001005000000000105300048000000000000009200000000000009250700000000000000009999123100000010000000000000BRALUPACNOR8110
012019120202ALUP4       010ALUPAR      PN      N2   R$  000000000079300000000008090000000000790000000000079600000000008000000000000800000000000080800045000000000000012200000000000009720000000000000000009999123100000010000000000000BRALUPACNPR5110
012019120202ALUP11      010ALUPAR      UNT     N2   R$  000000000261300000000026370000000002589000000000260700000000026100000000002610000000000261204810000000000000811800000000002116488000000000000000009999123100000010000000000000BRALUPCDAM15110
012019120202AMAR3       010LOJAS MARISAON      NM   R$  000000000115900000000011740000000001104000000000112500000000011040000000001104000000000110905439000000000002072100000000002332182300000000000000009999123100000010000000000000BRAMARACNOR4112
012019120202AMGN34      010AMGEN       DRN          R$  000000009901500000000990150000000099015000000009901500000000990150000000000000000000000000000001000000000000000400000000000039606000000000000000009999123100000010000000000000BRAMGNBDR004132
012019120202AMZO34      010AMAZON      DRN          R$  000000037481600000003774000000000374816000000037611300000003774000000000000000000000000000000005000000000000000600000000000225668100000000000000009999123100000010000000000000BRAMZOBDR002101
012019120202ANIM3       010ANIMA       ON      NM   R$  000000000224100000000022790000000002220000000000223400000000022340000000002226000000000223501292000000000000225300000000000503446900000000000000009999123100000010000000000000BRANIMACNOR6106
012019120202APER3       010ALPER S.A.  ON      NM   R$  000000000251700000000025890000000002460000000000251700000000025250000000002482000000000252400058000000000000012700000000000031977600000000000000009999123100000010000000000000BRAPERACNOR9101
012019120202APTV34      010APTIV PLC   DRN          R$  000000001976000000000197600000000019760000000001976000000000197600000000000000000000000000000001000000000000000100000000000001976000000000000000009999123100000010000000000000BRAPTVBDR003101
012019120202ARMT34      010ARCELOR     DRN          R$  000000000354500000000035450000000003545000000000354500000000035450000000002951000000000000000001000000000000001800000000000006381000000000000000009999123100000010000000000000BRARMTBDR008117
012019120202ARNC34      010ARCONIC     DRN          R$  000000001309000000000130900000000013090000000001309000000000130900000000000000000000000000000001000000000000000100000000000001309000000000000000009999123100000010000000000000BRARNCBDR002113
012019120202ARZZ3       010AREZZO CO   ON      NM   R$  000000000630700000000063300000000006202000000000624700000000062600000000006248000000000626303835000000000000798000000000004985393400000000000000009999123100000010000000000000BRARZZACNOR3136
012019120202ATOM3       010ATOMPAR     ON           R$  000000000015400000000001570000000000150000000000015400000000001560000000000155000000000015600063000000000000030100000000000004640900000000000000009999123100000010000000000000BRATOMACNOR1103
012019120202ATTB34      010ATT INC     DRN          R$  000000001572000000000158130000000015677000000001576700000000156770000000015677000000000000000003000000000000000700000000000011036900000000000000009999123100000010000000000000BRATTBBDR007129
012019120202AZUL4       010AZUL        PN      N2   R$  000000000529000000000053080000000005224000000000528500000000052940000000005275000000000529408050000000000001469700000000007767746100000000000000009999123100000010000000000000BRAZULACNPR4100
012019120202B3SA3       010B3          ON      NM   R$  000000000478600000000048370000000004751000000000479300000000047600000000004759000000000476021983000000000007466600000000035794750800000000000000009999123100000010000000000000BRB3SAACNOR6108
012019120202BAHI3       010BAHEMA      ON      MA   R$  000000001120000000000112000000000011200000000001120000000000112000000000011000000000001149000001000000000000000100000000000001120000000000000000009999123100000010000000000000BRBAHIACNOR1071
012019120202BALM4       010BAUMER      PN           R$  000000000115000000000011500000000001150000000000115000000000011500000000000100000000000113000001000000000000000200000000000000230000000000000000009999123100000010000000000000BRBALMACNPR2050
012019120202BAUH4       010EXCELSIOR   PN           R$  000000000671400000000068950000000006714000000000679600000000068940000000006755000000000689500016000000000000001600000000000010874100000000000000009999123100000010000000000000BRBAUHACNPR3114
012019120202BAZA3       010AMAZONIA    ON           R$  000000000364000000000036990000000003552000000000361300000000036300000000003605000000000363000022000000000000004900000000000017707100000000000000009999123100000010000000000000BRBAZAACNOR0173
012019120202BBAS3       010BRASIL      ON  EJ  NM   R$  000000000478100000000048330000000004743000000000478800000000047430000000004743000000000474922310000000000009727400000000046583112000000000000000009999123100000010000000000000BRBBASACNOR3288
012019120202BBDC3       010BRADESCO    ON      N1   R$  000000000313100000000031720000000003128000000000315500000000031560000000003154000000000315609209000000000002576500000000008129286800000000000000009999123100000010000000000000BRBBDCACNOR1702
012019120202BBDC4       010BRADESCO    PN      N1   R$  000000000334700000000033880000000003339000000000336800000000033590000000003359000000000336021527000000000011664800000000039289039900000000000000009999123100000010000000000000BRBBDCACNPR8702
012019120202BBRK3       010BR BROKERS  ON      NM   R$  000000000038400000000003840000000000369000000000037500000000003730000000000373000000000037800280000000000000109900000000000041222800000000000000009999123100000010000000000000BRBBRKACNOR4113
012019120202BBSD11      010BB ETF SP DVCI           R$  000000000876500000000087650000000008703000000000871100000000087030000000008679000000000000000010000000000000003150000000000027440740000000000000009999123100000010000000000000BRBBSDCTF000100
012019120202BBSE3       010BBSEGURIDADEON      NM   R$  000000000346800000000035000000000003448000000000346600000000034520000000003451000000000345208553000000000002520100000000008735686900000000000000009999123100000010000000000000BRBBSEACNOR5114
012019120202BEEF3       010MINERVA     ON      NM   R$  000000000149000000000015400000000001477000000000151600000000015400000000001530000000000154015990000000000005388000000000008173372200000000000000009999123100000010000000000000BRBEEFACNOR6108
012019120202BEES3       010BANESTES    ON  EJ       R$  000000000057100000000005730000000000568000000000057000000000005690000000000568000000000056900124000000000000024000000000000013681800000000000000009999123100000010000000000000BRBEESACNOR9332
012019120202BEES4       010BANESTES    PN  EJ       R$  000000000059000000000005900000000000588000000000058900000000005890000000000588000000000058900018000000000000002800000000000001650000000000000000009999123100000010000000000000BRBEESACNPR6257
012019120202BERK34      010BERKSHIRE   DRN          R$  000000009381400000000938140000000093814000000009381400000000938140000000072500000000000000000001000000000000000500000000000046907000000000000000009999123100000010000000000000BRBERKBDR002100
012019120202BIDI3       010BANCO INTER ON      N2   R$  000000000147100000000014970000000001458000000000148700000000014830000000001483000000000149401148000000000000213400000000000317483000000000000000009999123100000010000000000000BRBIDIACNOR3103
012019120202BIDI4       010BANCO INTER PN      N2   R$  000000000150800000000015360000000001482000000000151400000000015000000000001500000000000150305394000000000001738300000000002633209300000000000000009999123100000010000000000000BRBIDIACNPR0107
012019120202BIDI11      010BANCO INTER UNT     N2   R$  000000000450000000000045870000000004452000000000452700000000045200000000004519000000000452502644000000000000623900000000002824756900000000000000009999123100000010000000000000BRBIDICDAXX3102
012019120202BIOM3       010BIOMM       ON      MA   R$  000000000092200000000009340000000000915000000000091700000000009150000000000915000000000092500103000000000000028600000000000026248300000000000000009999123100000010000000000000BRBIOMACNOR2107
012019120202BKBR3       010BK BRASIL   ON      NM   R$  000000000168100000000016830000000001638000000000165300000000016410000000001641000000000165003919000000000000718100000000001187591900000000000000009999123100000010000000000000BRBKBRACNOR4102
012019120202BKNG34      010BOOKING     DRN          R$  000000003184500000000318460000000031845000000003184500000000318460000000000000000000000000000002000000000000000600000000000019107100000000000000009999123100000010000000000000BRBKNGBDR006100
012019120202BLAK34      010BLACKROCK   DRN          R$  000000003489900000000348990000000034899000000003489900000000348990000000000000000000000000000001000000000000000100000000000003489900000000000000009999123100000010000000000000BRBLAKBDR003114
99COTAHIST.2019BOVESPA 2019123000000069204
